{
  "contractName": "Classroom",
  "abi": [
    {
      "inputs": [
        {
          "internalType": "address payable",
          "name": "_address",
          "type": "address"
        },
        {
          "internalType": "uint256",
          "name": "_sessions",
          "type": "uint256"
        }
      ],
      "stateMutability": "nonpayable",
      "type": "constructor"
    },
    {
      "anonymous": false,
      "inputs": [
        {
          "indexed": true,
          "internalType": "address",
          "name": "owner",
          "type": "address"
        },
        {
          "indexed": true,
          "internalType": "uint256",
          "name": "txIndex",
          "type": "uint256"
        }
      ],
      "name": "ConfirmTransaction",
      "type": "event"
    },
    {
      "anonymous": false,
      "inputs": [
        {
          "indexed": true,
          "internalType": "address",
          "name": "sender",
          "type": "address"
        },
        {
          "indexed": false,
          "internalType": "uint256",
          "name": "amount",
          "type": "uint256"
        },
        {
          "indexed": false,
          "internalType": "uint256",
          "name": "balance",
          "type": "uint256"
        }
      ],
      "name": "Deposit",
      "type": "event"
    },
    {
      "anonymous": false,
      "inputs": [
        {
          "indexed": true,
          "internalType": "address",
          "name": "owner",
          "type": "address"
        },
        {
          "indexed": true,
          "internalType": "uint256",
          "name": "txIndex",
          "type": "uint256"
        }
      ],
      "name": "ExecuteTransaction",
      "type": "event"
    },
    {
      "anonymous": false,
      "inputs": [
        {
          "indexed": true,
          "internalType": "address",
          "name": "owner",
          "type": "address"
        },
        {
          "indexed": true,
          "internalType": "uint256",
          "name": "txIndex",
          "type": "uint256"
        }
      ],
      "name": "RevokeConfirmation",
      "type": "event"
    },
    {
      "anonymous": false,
      "inputs": [
        {
          "indexed": true,
          "internalType": "address",
          "name": "owner",
          "type": "address"
        },
        {
          "indexed": true,
          "internalType": "uint256",
          "name": "txIndex",
          "type": "uint256"
        }
      ],
      "name": "SubmitTransaction",
      "type": "event"
    },
    {
      "inputs": [],
      "name": "classroomAddress",
      "outputs": [
        {
          "internalType": "address",
          "name": "",
          "type": "address"
        }
      ],
      "stateMutability": "view",
      "type": "function",
      "constant": true
    },
    {
      "inputs": [
        {
          "internalType": "uint256",
          "name": "",
          "type": "uint256"
        },
        {
          "internalType": "address",
          "name": "",
          "type": "address"
        }
      ],
      "name": "isConfirmed",
      "outputs": [
        {
          "internalType": "bool",
          "name": "",
          "type": "bool"
        }
      ],
      "stateMutability": "view",
      "type": "function",
      "constant": true
    },
    {
      "inputs": [
        {
          "internalType": "address",
          "name": "",
          "type": "address"
        }
      ],
      "name": "isOwner",
      "outputs": [
        {
          "internalType": "bool",
          "name": "",
          "type": "bool"
        }
      ],
      "stateMutability": "view",
      "type": "function",
      "constant": true
    },
    {
      "inputs": [],
      "name": "numConfirmationsRequired",
      "outputs": [
        {
          "internalType": "uint256",
          "name": "",
          "type": "uint256"
        }
      ],
      "stateMutability": "view",
      "type": "function",
      "constant": true
    },
    {
      "inputs": [],
      "name": "numOfParticipants",
      "outputs": [
        {
          "internalType": "uint256",
          "name": "",
          "type": "uint256"
        }
      ],
      "stateMutability": "view",
      "type": "function",
      "constant": true
    },
    {
      "inputs": [
        {
          "internalType": "uint256",
          "name": "",
          "type": "uint256"
        }
      ],
      "name": "owners",
      "outputs": [
        {
          "internalType": "address payable",
          "name": "",
          "type": "address"
        }
      ],
      "stateMutability": "view",
      "type": "function",
      "constant": true
    },
    {
      "inputs": [],
      "name": "reward",
      "outputs": [
        {
          "internalType": "uint256",
          "name": "",
          "type": "uint256"
        }
      ],
      "stateMutability": "view",
      "type": "function",
      "constant": true
    },
    {
      "inputs": [],
      "name": "sessions",
      "outputs": [
        {
          "internalType": "uint256",
          "name": "",
          "type": "uint256"
        }
      ],
      "stateMutability": "view",
      "type": "function",
      "constant": true
    },
    {
      "inputs": [
        {
          "internalType": "uint256",
          "name": "",
          "type": "uint256"
        }
      ],
      "name": "transactions",
      "outputs": [
        {
          "internalType": "bool",
          "name": "executed",
          "type": "bool"
        },
        {
          "internalType": "uint256",
          "name": "numConfirmations",
          "type": "uint256"
        }
      ],
      "stateMutability": "view",
      "type": "function",
      "constant": true
    },
    {
      "stateMutability": "payable",
      "type": "receive",
      "payable": true
    },
    {
      "inputs": [],
      "name": "submitTransaction",
      "outputs": [],
      "stateMutability": "nonpayable",
      "type": "function"
    },
    {
      "inputs": [
        {
          "internalType": "uint256",
          "name": "_txIndex",
          "type": "uint256"
        }
      ],
      "name": "confirmTransaction",
      "outputs": [],
      "stateMutability": "nonpayable",
      "type": "function"
    },
    {
      "inputs": [
        {
          "internalType": "uint256",
          "name": "_txIndex",
          "type": "uint256"
        }
      ],
      "name": "executeTransaction",
      "outputs": [],
      "stateMutability": "nonpayable",
      "type": "function"
    },
    {
      "inputs": [
        {
          "internalType": "uint256",
          "name": "_txIndex",
          "type": "uint256"
        }
      ],
      "name": "revokeConfirmation",
      "outputs": [],
      "stateMutability": "nonpayable",
      "type": "function"
    },
    {
      "inputs": [],
      "name": "register",
      "outputs": [],
      "stateMutability": "nonpayable",
      "type": "function"
    },
    {
      "inputs": [],
      "name": "getParticipants",
      "outputs": [
        {
          "internalType": "address payable[]",
          "name": "",
          "type": "address[]"
        }
      ],
      "stateMutability": "view",
      "type": "function",
      "constant": true
    },
    {
      "inputs": [],
      "name": "getBalance",
      "outputs": [
        {
          "internalType": "uint256",
          "name": "",
          "type": "uint256"
        }
      ],
      "stateMutability": "view",
      "type": "function",
      "constant": true
    },
    {
      "inputs": [],
      "name": "getTransactionCount",
      "outputs": [
        {
          "internalType": "uint256",
          "name": "",
          "type": "uint256"
        }
      ],
      "stateMutability": "view",
      "type": "function",
      "constant": true
    },
    {
      "inputs": [
        {
          "internalType": "uint256",
          "name": "_txIndex",
          "type": "uint256"
        }
      ],
      "name": "getTransaction",
      "outputs": [
        {
          "internalType": "bool",
          "name": "executed",
          "type": "bool"
        },
        {
          "internalType": "uint256",
          "name": "numConfirmations",
          "type": "uint256"
        }
      ],
      "stateMutability": "view",
      "type": "function",
      "constant": true
    }
  ],
  "bytecode": "0x608060405260036001556002805530600560006101000a81548173ffffffffffffffffffffffffffffffffffffffff021916908373ffffffffffffffffffffffffffffffffffffffff1602179055503480156200005b57600080fd5b5060405162001f0f38038062001f0f8339818101604052810190620000819190620001f0565b6000829080600181540180825580915050600190039060005260206000200160009091909190916101000a81548173ffffffffffffffffffffffffffffffffffffffff021916908373ffffffffffffffffffffffffffffffffffffffff1602179055506001600660008473ffffffffffffffffffffffffffffffffffffffff1673ffffffffffffffffffffffffffffffffffffffff16815260200190815260200160002060006101000a81548160ff02191690831515021790555080600381905550505062000237565b600080fd5b600073ffffffffffffffffffffffffffffffffffffffff82169050919050565b60006200017d8262000150565b9050919050565b6200018f8162000170565b81146200019b57600080fd5b50565b600081519050620001af8162000184565b92915050565b6000819050919050565b620001ca81620001b5565b8114620001d657600080fd5b50565b600081519050620001ea81620001bf565b92915050565b600080604083850312156200020a57620002096200014b565b5b60006200021a858286016200019e565b92505060206200022d85828601620001d9565b9150509250929050565b611cc880620002476000396000f3fe60806040526004361061010d5760003560e01c80635aa68ac011610095578063bfc2b13d11610064578063bfc2b13d146103ca578063c01a8c84146103f5578063c89868df1461041e578063d0549b8514610449578063ee22610b1461047457610164565b80635aa68ac0146102f957806380f59a65146103245780638f395371146103615780639ace38c21461038c57610164565b8063228cb733116100dc578063228cb733146102115780632e7700f01461023c5780632f54bf6e1461026757806333ea3dc8146102a45780633caed876146102e257610164565b8063025e7c271461016957806312065fe0146101a65780631aa3a008146101d157806320ea8d86146101e857610164565b36610164573373ffffffffffffffffffffffffffffffffffffffff167f90890809c654f11d6e72a28fa60149770a0d11ec6c92319d6ceb2bb0a4ea1a15344760405161015a9291906112e0565b60405180910390a2005b600080fd5b34801561017557600080fd5b50610190600480360381019061018b919061133a565b61049d565b60405161019d91906113a8565b60405180910390f35b3480156101b257600080fd5b506101bb6104dc565b6040516101c891906113c3565b60405180910390f35b3480156101dd57600080fd5b506101e66104e4565b005b3480156101f457600080fd5b5061020f600480360381019061020a919061133a565b610677565b005b34801561021d57600080fd5b50610226610951565b60405161023391906113c3565b60405180910390f35b34801561024857600080fd5b50610251610957565b60405161025e91906113c3565b60405180910390f35b34801561027357600080fd5b5061028e6004803603810190610289919061141c565b610964565b60405161029b9190611464565b60405180910390f35b3480156102b057600080fd5b506102cb60048036038101906102c6919061133a565b610984565b6040516102d992919061147f565b60405180910390f35b3480156102ee57600080fd5b506102f76109ce565b005b34801561030557600080fd5b5061030e610b1b565b60405161031b9190611566565b60405180910390f35b34801561033057600080fd5b5061034b60048036038101906103469190611588565b610ba9565b6040516103589190611464565b60405180910390f35b34801561036d57600080fd5b50610376610bd8565b60405161038391906115d7565b60405180910390f35b34801561039857600080fd5b506103b360048036038101906103ae919061133a565b610bfe565b6040516103c192919061147f565b60405180910390f35b3480156103d657600080fd5b506103df610c3f565b6040516103ec91906113c3565b60405180910390f35b34801561040157600080fd5b5061041c6004803603810190610417919061133a565b610c45565b005b34801561042a57600080fd5b50610433610f22565b60405161044091906113c3565b60405180910390f35b34801561045557600080fd5b5061045e610f28565b60405161046b91906113c3565b60405180910390f35b34801561048057600080fd5b5061049b6004803603810190610496919061133a565b610f2e565b005b600081815481106104ad57600080fd5b906000526020600020016000915054906101000a900473ffffffffffffffffffffffffffffffffffffffff1681565b600047905090565b6001546000805490501061052d576040517f08c379a00000000000000000000000000000000000000000000000000000000081526004016105249061164f565b60405180910390fd5b600660003373ffffffffffffffffffffffffffffffffffffffff1673ffffffffffffffffffffffffffffffffffffffff16815260200190815260200160002060009054906101000a900460ff16156105ba576040517f08c379a00000000000000000000000000000000000000000000000000000000081526004016105b1906116bb565b60405180910390fd5b6000339080600181540180825580915050600190039060005260206000200160009091909190916101000a81548173ffffffffffffffffffffffffffffffffffffffff021916908373ffffffffffffffffffffffffffffffffffffffff1602179055506001600660003373ffffffffffffffffffffffffffffffffffffffff1673ffffffffffffffffffffffffffffffffffffffff16815260200190815260200160002060006101000a81548160ff021916908315150217905550565b600660003373ffffffffffffffffffffffffffffffffffffffff1673ffffffffffffffffffffffffffffffffffffffff16815260200190815260200160002060009054906101000a900460ff16610703576040517f08c379a00000000000000000000000000000000000000000000000000000000081526004016106fa90611727565b60405180910390fd5b80600880549050811061074b576040517f08c379a000000000000000000000000000000000000000000000000000000000815260040161074290611793565b60405180910390fd5b81600881815481106107605761075f6117b3565b5b906000526020600020906002020160000160009054906101000a900460ff16156107bf576040517f08c379a00000000000000000000000000000000000000000000000000000000081526004016107b69061182e565b60405180910390fd5b6000600884815481106107d5576107d46117b3565b5b906000526020600020906002020190506007600085815260200190815260200160002060003373ffffffffffffffffffffffffffffffffffffffff1673ffffffffffffffffffffffffffffffffffffffff16815260200190815260200160002060009054906101000a900460ff16610882576040517f08c379a00000000000000000000000000000000000000000000000000000000081526004016108799061189a565b60405180910390fd5b600181600101600082825461089791906118e9565b9250508190555060006007600086815260200190815260200160002060003373ffffffffffffffffffffffffffffffffffffffff1673ffffffffffffffffffffffffffffffffffffffff16815260200190815260200160002060006101000a81548160ff021916908315150217905550833373ffffffffffffffffffffffffffffffffffffffff167ff0dca620e2e81f7841d07bcc105e1704fb01475b278a9d4c236e1c62945edd5560405160405180910390a350505050565b60045481565b6000600880549050905090565b60066020528060005260406000206000915054906101000a900460ff1681565b60008060006008848154811061099d5761099c6117b3565b5b906000526020600020906002020190508060000160009054906101000a900460ff1681600101549250925050915091565b600660003373ffffffffffffffffffffffffffffffffffffffff1673ffffffffffffffffffffffffffffffffffffffff16815260200190815260200160002060009054906101000a900460ff16610a5a576040517f08c379a0000000000000000000000000000000000000000000000000000000008152600401610a5190611727565b60405180910390fd5b60006008805490509050600860405180604001604052806000151581526020016000815250908060018154018082558091505060019003906000526020600020906002020160009091909190915060008201518160000160006101000a81548160ff021916908315150217905550602082015181600101555050803373ffffffffffffffffffffffffffffffffffffffff167fc82555d64d2b8b25ffefc140ae6575736763ee3a99347632d7f633e7bfae3f7860405160405180910390a350565b60606000805480602002602001604051908101604052809291908181526020018280548015610b9f57602002820191906000526020600020905b8160009054906101000a900473ffffffffffffffffffffffffffffffffffffffff1673ffffffffffffffffffffffffffffffffffffffff1681526020019060010190808311610b55575b5050505050905090565b60076020528160005260406000206020528060005260406000206000915091509054906101000a900460ff1681565b600560009054906101000a900473ffffffffffffffffffffffffffffffffffffffff1681565b60088181548110610c0e57600080fd5b90600052602060002090600202016000915090508060000160009054906101000a900460ff16908060010154905082565b60015481565b600660003373ffffffffffffffffffffffffffffffffffffffff1673ffffffffffffffffffffffffffffffffffffffff16815260200190815260200160002060009054906101000a900460ff16610cd1576040517f08c379a0000000000000000000000000000000000000000000000000000000008152600401610cc890611727565b60405180910390fd5b806008805490508110610d19576040517f08c379a0000000000000000000000000000000000000000000000000000000008152600401610d1090611793565b60405180910390fd5b8160088181548110610d2e57610d2d6117b3565b5b906000526020600020906002020160000160009054906101000a900460ff1615610d8d576040517f08c379a0000000000000000000000000000000000000000000000000000000008152600401610d849061182e565b60405180910390fd5b826007600082815260200190815260200160002060003373ffffffffffffffffffffffffffffffffffffffff1673ffffffffffffffffffffffffffffffffffffffff16815260200190815260200160002060009054906101000a900460ff1615610e2c576040517f08c379a0000000000000000000000000000000000000000000000000000000008152600401610e2390611969565b60405180910390fd5b600060088581548110610e4257610e416117b3565b5b906000526020600020906002020190506001816001016000828254610e679190611989565b9250508190555060016007600087815260200190815260200160002060003373ffffffffffffffffffffffffffffffffffffffff1673ffffffffffffffffffffffffffffffffffffffff16815260200190815260200160002060006101000a81548160ff021916908315150217905550843373ffffffffffffffffffffffffffffffffffffffff167f5cbe105e36805f7820e291f799d5794ff948af2a5f664e580382defb6339004160405160405180910390a35050505050565b60035481565b60025481565b600660003373ffffffffffffffffffffffffffffffffffffffff1673ffffffffffffffffffffffffffffffffffffffff16815260200190815260200160002060009054906101000a900460ff16610fba576040517f08c379a0000000000000000000000000000000000000000000000000000000008152600401610fb190611727565b60405180910390fd5b806008805490508110611002576040517f08c379a0000000000000000000000000000000000000000000000000000000008152600401610ff990611793565b60405180910390fd5b8160088181548110611017576110166117b3565b5b906000526020600020906002020160000160009054906101000a900460ff1615611076576040517f08c379a000000000000000000000000000000000000000000000000000000000815260040161106d9061182e565b60405180910390fd5b60006008848154811061108c5761108b6117b3565b5b90600052602060002090600202019050600254816001015410156110e5576040517f08c379a00000000000000000000000000000000000000000000000000000000081526004016110dc90611a2b565b60405180910390fd5b600080805490501161112c576040517f08c379a000000000000000000000000000000000000000000000000000000000815260040161112390611abd565b60405180910390fd5b60035460008054905061113f9190611add565b4761114a9190611b66565b60048190555060005b60008054905081101561125f576000808281548110611175576111746117b3565b5b9060005260206000200160009054906101000a900473ffffffffffffffffffffffffffffffffffffffff1673ffffffffffffffffffffffffffffffffffffffff166004546040516111c590611bc8565b60006040518083038185875af1925050503d8060008114611202576040519150601f19603f3d011682016040523d82523d6000602084013e611207565b606091505b505090508061124b576040517f08c379a000000000000000000000000000000000000000000000000000000000815260040161124290611c29565b60405180910390fd5b50808061125790611c49565b915050611153565b5060018160000160006101000a81548160ff021916908315150217905550833373ffffffffffffffffffffffffffffffffffffffff167f5445f318f4f5fcfb66592e68e0cc5822aa15664039bd5f0ffde24c5a8142b1ac60405160405180910390a350505050565b6000819050919050565b6112da816112c7565b82525050565b60006040820190506112f560008301856112d1565b61130260208301846112d1565b9392505050565b600080fd5b611317816112c7565b811461132257600080fd5b50565b6000813590506113348161130e565b92915050565b6000602082840312156113505761134f611309565b5b600061135e84828501611325565b91505092915050565b600073ffffffffffffffffffffffffffffffffffffffff82169050919050565b600061139282611367565b9050919050565b6113a281611387565b82525050565b60006020820190506113bd6000830184611399565b92915050565b60006020820190506113d860008301846112d1565b92915050565b60006113e982611367565b9050919050565b6113f9816113de565b811461140457600080fd5b50565b600081359050611416816113f0565b92915050565b60006020828403121561143257611431611309565b5b600061144084828501611407565b91505092915050565b60008115159050919050565b61145e81611449565b82525050565b60006020820190506114796000830184611455565b92915050565b60006040820190506114946000830185611455565b6114a160208301846112d1565b9392505050565b600081519050919050565b600082825260208201905092915050565b6000819050602082019050919050565b6114dd81611387565b82525050565b60006114ef83836114d4565b60208301905092915050565b6000602082019050919050565b6000611513826114a8565b61151d81856114b3565b9350611528836114c4565b8060005b8381101561155957815161154088826114e3565b975061154b836114fb565b92505060018101905061152c565b5085935050505092915050565b600060208201905081810360008301526115808184611508565b905092915050565b6000806040838503121561159f5761159e611309565b5b60006115ad85828601611325565b92505060206115be85828601611407565b9150509250929050565b6115d1816113de565b82525050565b60006020820190506115ec60008301846115c8565b92915050565b600082825260208201905092915050565b7f636c6173732069732066756c6c00000000000000000000000000000000000000600082015250565b6000611639600d836115f2565b915061164482611603565b602082019050919050565b600060208201905081810360008301526116688161162c565b9050919050565b7f6f776e6572206e6f7420756e6971756500000000000000000000000000000000600082015250565b60006116a56010836115f2565b91506116b08261166f565b602082019050919050565b600060208201905081810360008301526116d481611698565b9050919050565b7f6e6f74206f776e65720000000000000000000000000000000000000000000000600082015250565b60006117116009836115f2565b915061171c826116db565b602082019050919050565b6000602082019050818103600083015261174081611704565b9050919050565b7f747820646f6573206e6f74206578697374000000000000000000000000000000600082015250565b600061177d6011836115f2565b915061178882611747565b602082019050919050565b600060208201905081810360008301526117ac81611770565b9050919050565b7f4e487b7100000000000000000000000000000000000000000000000000000000600052603260045260246000fd5b7f747820616c726561647920657865637574656400000000000000000000000000600082015250565b60006118186013836115f2565b9150611823826117e2565b602082019050919050565b600060208201905081810360008301526118478161180b565b9050919050565b7f7478206e6f7420636f6e6669726d656400000000000000000000000000000000600082015250565b60006118846010836115f2565b915061188f8261184e565b602082019050919050565b600060208201905081810360008301526118b381611877565b9050919050565b7f4e487b7100000000000000000000000000000000000000000000000000000000600052601160045260246000fd5b60006118f4826112c7565b91506118ff836112c7565b925082821015611912576119116118ba565b5b828203905092915050565b7f747820616c726561647920636f6e6669726d6564000000000000000000000000600082015250565b60006119536014836115f2565b915061195e8261191d565b602082019050919050565b6000602082019050818103600083015261198281611946565b9050919050565b6000611994826112c7565b915061199f836112c7565b9250827fffffffffffffffffffffffffffffffffffffffffffffffffffffffffffffffff038211156119d4576119d36118ba565b5b828201905092915050565b7f63616e6e6f742065786563757465207478000000000000000000000000000000600082015250565b6000611a156011836115f2565b9150611a20826119df565b602082019050919050565b60006020820190508181036000830152611a4481611a08565b9050919050565b7f546865726520617265206e6f207061727469636970616e747320696e2074686560008201527f20636c617373726f6f6d00000000000000000000000000000000000000000000602082015250565b6000611aa7602a836115f2565b9150611ab282611a4b565b604082019050919050565b60006020820190508181036000830152611ad681611a9a565b9050919050565b6000611ae8826112c7565b9150611af3836112c7565b9250817fffffffffffffffffffffffffffffffffffffffffffffffffffffffffffffffff0483118215151615611b2c57611b2b6118ba565b5b828202905092915050565b7f4e487b7100000000000000000000000000000000000000000000000000000000600052601260045260246000fd5b6000611b71826112c7565b9150611b7c836112c7565b925082611b8c57611b8b611b37565b5b828204905092915050565b600081905092915050565b50565b6000611bb2600083611b97565b9150611bbd82611ba2565b600082019050919050565b6000611bd382611ba5565b9150819050919050565b7f4661696c656420746f2073656e64204574686572000000000000000000000000600082015250565b6000611c136014836115f2565b9150611c1e82611bdd565b602082019050919050565b60006020820190508181036000830152611c4281611c06565b9050919050565b6000611c54826112c7565b91507fffffffffffffffffffffffffffffffffffffffffffffffffffffffffffffffff821415611c8757611c866118ba565b5b60018201905091905056fea2646970667358221220d901fe3477bb26e3d983f1aec11f4850656453b0715b67800e80104b977b01b864736f6c634300080a0033",
  "immutableReferences": {},
  "source": "// SPDX-License-Identifier: GPL-3.0\n\npragma solidity >=0.8.0 <0.9.0;\n\n/// @title The Classroom contract\n/// @author Wilman D. Vinueza\n/// @notice I modified this contract from the example Multisig provided by Smart Contract Programmer, he is awesome.\ncontract Classroom {\n    \n    event Deposit(address indexed sender, uint amount, uint balance);\n    event SubmitTransaction(\n        address indexed owner,\n        uint indexed txIndex \n    );\n    event ConfirmTransaction(address indexed owner, uint indexed txIndex);\n    event RevokeConfirmation(address indexed owner, uint indexed txIndex);\n    event ExecuteTransaction(address indexed owner, uint indexed txIndex);\n\n    address payable[] public owners;\n\n    uint public numOfParticipants = 3;\n    uint public numConfirmationsRequired = 2;\n    uint public sessions;\n    uint public reward;\n    address public classroomAddress = address(this);\n\n    mapping(address => bool) public isOwner;\n\n    struct Transaction {\n        /*address to;\n        uint value;\n        bytes data;*/\n        bool executed;\n        uint numConfirmations;\n    }\n\n    // mapping from tx index => owner => bool\n    mapping(uint => mapping(address => bool)) public isConfirmed;\n\n    Transaction[] public transactions;\n\n    modifier onlyOwner() {\n        require(isOwner[msg.sender], \"not owner\");\n        _;\n    }\n\n    modifier txExists(uint _txIndex) {\n        require(_txIndex < transactions.length, \"tx does not exist\");\n        _;\n    }\n\n    modifier notExecuted(uint _txIndex) {\n        require(!transactions[_txIndex].executed, \"tx already executed\");\n        _;\n    }\n\n    modifier notConfirmed(uint _txIndex) {\n        require(!isConfirmed[_txIndex][msg.sender], \"tx already confirmed\");\n        _;\n    }\n\n    constructor(address payable _address, uint _sessions) {\n        owners.push(_address);\n        isOwner[_address] = true;\n        sessions = _sessions;\n    }\n\n    function submitTransaction() public onlyOwner {\n        uint txIndex = transactions.length;\n\n        transactions.push(\n            Transaction({\n                /*to: _to,\n                value: _value,\n                data: _data,*/\n                executed: false,\n                numConfirmations: 0\n            })\n        );\n\n        emit SubmitTransaction(msg.sender, txIndex);\n    }\n\n\n    function confirmTransaction(uint _txIndex)\n        public\n        onlyOwner\n        txExists(_txIndex)\n        notExecuted(_txIndex)\n        notConfirmed(_txIndex)\n    {\n        Transaction storage transaction = transactions[_txIndex];\n        transaction.numConfirmations += 1;\n        isConfirmed[_txIndex][msg.sender] = true;\n\n        emit ConfirmTransaction(msg.sender, _txIndex);\n    }\n   \n\n    function executeTransaction(uint _txIndex)\n        public\n        onlyOwner\n        txExists(_txIndex)\n        notExecuted(_txIndex)\n    {\n        Transaction storage transaction = transactions[_txIndex];\n\n        require(\n            transaction.numConfirmations >= numConfirmationsRequired,\n            \"cannot execute tx\"\n        );\n\n        require(owners.length>0,\"There are no participants in the classroom\");\n        reward = address(this).balance/(owners.length*sessions);\n        \n        for (uint i = 0; i < owners.length; i++) {\n            (bool sent, ) = owners[i].call{value: reward}(\"\");\n            require(sent, \"Failed to send Ether\");\n        }\n        \n        \n        /*\n        (bool sent, ) = owners[0].call{value: reward}(\"\");\n        require(sent, \"Failed to send Ether\");\n        */\n\n        transaction.executed = true;\n        \n        emit ExecuteTransaction(msg.sender, _txIndex);\n    }\n\n\n    function revokeConfirmation(uint _txIndex)\n        public\n        onlyOwner\n        txExists(_txIndex)\n        notExecuted(_txIndex)\n    {\n        Transaction storage transaction = transactions[_txIndex];\n\n        require(isConfirmed[_txIndex][msg.sender], \"tx not confirmed\");\n\n        transaction.numConfirmations -= 1;\n        isConfirmed[_txIndex][msg.sender] = false;\n\n        emit RevokeConfirmation(msg.sender, _txIndex);\n    }\n\n    function register() public {\n        require(owners.length < numOfParticipants, \"class is full\");\n        require(!isOwner[msg.sender], \"owner not unique\");\n\n        owners.push(payable(msg.sender));\n        isOwner[msg.sender] = true;\n    }\n\n    function getParticipants() public view returns (address payable[] memory) {\n        return owners;\n    }\n\n    function getBalance() public view returns (uint){\n        return address(this).balance;\n    }\n\n    function getTransactionCount() public view returns (uint) {\n        return transactions.length;\n    }\n\n    function getTransaction(uint _txIndex)\n        public\n        view\n        returns (\n            bool executed,\n            uint numConfirmations\n        )\n    {\n        Transaction storage transaction = transactions[_txIndex];\n\n        return (\n            transaction.executed,\n            transaction.numConfirmations\n        );\n    }\n\n    receive() external payable {\n        emit Deposit(msg.sender, msg.value, address(this).balance);\n    }\n\n\n    \n}",
  "sourcePath": "/home/daniel/Desktop/p-projects/classroomDao/contracts/Classroom.sol",
  "compiler": {
    "name": "solc",
    "version": "0.8.10+commit.fc410830.Emscripten.clang"
  },
  "schemaVersion": "3.4.3",
  "updatedAt": "2022-11-11T05:31:25.709Z",
  "networkType": "ethereum",
  "devdoc": {
    "author": "Wilman D. Vinueza",
    "kind": "dev",
    "methods": {},
    "title": "The Classroom contract",
    "version": 1
  },
  "userdoc": {
    "kind": "user",
    "methods": {},
    "notice": "I modified this contract from the example Multisig provided by Smart Contract Programmer, he is awesome.",
    "version": 1
  }
}