{
  "contractName": "ClassroomFactory",
  "abi": [
    {
      "anonymous": false,
      "inputs": [
        {
          "indexed": true,
          "internalType": "address",
          "name": "classroomAddress",
          "type": "address"
        }
      ],
      "name": "ClassroomCreated",
      "type": "event"
    },
    {
      "inputs": [
        {
          "internalType": "uint256",
          "name": "",
          "type": "uint256"
        }
      ],
      "name": "classrooms",
      "outputs": [
        {
          "internalType": "contract Classroom",
          "name": "",
          "type": "address"
        }
      ],
      "stateMutability": "view",
      "type": "function",
      "constant": true
    },
    {
      "inputs": [
        {
          "internalType": "uint256",
          "name": "_sessions",
          "type": "uint256"
        }
      ],
      "name": "createClassroom",
      "outputs": [],
      "stateMutability": "nonpayable",
      "type": "function"
    },
    {
      "inputs": [
        {
          "internalType": "uint256",
          "name": "_index",
          "type": "uint256"
        }
      ],
      "name": "getClassroom",
      "outputs": [
        {
          "internalType": "uint256",
          "name": "numOfParticipants",
          "type": "uint256"
        },
        {
          "internalType": "uint256",
          "name": "numConfirmationsRequired",
          "type": "uint256"
        },
        {
          "internalType": "uint256",
          "name": "sessions",
          "type": "uint256"
        },
        {
          "internalType": "uint256",
          "name": "balance",
          "type": "uint256"
        },
        {
          "internalType": "address",
          "name": "classroomAddress",
          "type": "address"
        }
      ],
      "stateMutability": "view",
      "type": "function",
      "constant": true
    },
    {
      "inputs": [],
      "name": "getTotalClassrooms",
      "outputs": [
        {
          "internalType": "uint256",
          "name": "count",
          "type": "uint256"
        }
      ],
      "stateMutability": "view",
      "type": "function",
      "constant": true
    }
  ],
  "bytecode": "0x608060405234801561001057600080fd5b50612748806100206000396000f3fe60806040523480156200001157600080fd5b5060043610620000525760003560e01c8063086eafae1462000057578063170ad425146200008d5780632029cc9e14620000af578063eb7546c614620000cf575b600080fd5b6200007560048036038101906200006f919062000521565b62000109565b604051620000849190620005de565b60405180910390f35b6200009762000149565b604051620000a691906200060c565b60405180910390f35b620000cd6004803603810190620000c7919062000521565b62000155565b005b620000ed6004803603810190620000e7919062000521565b62000292565b604051620001009594939291906200064e565b60405180910390f35b600081815481106200011a57600080fd5b906000526020600020016000915054906101000a900473ffffffffffffffffffffffffffffffffffffffff1681565b60008080549050905090565b600033826040516200016790620004d3565b62000174929190620006d0565b604051809103906000f08015801562000191573d6000803e3d6000fd5b5090506000819080600181540180825580915050600190039060005260206000200160009091909190916101000a81548173ffffffffffffffffffffffffffffffffffffffff021916908373ffffffffffffffffffffffffffffffffffffffff160217905550600060016000805490506200020d91906200072c565b8154811062000221576200022062000767565b5b9060005260206000200160009054906101000a900473ffffffffffffffffffffffffffffffffffffffff1673ffffffffffffffffffffffffffffffffffffffff167f0f3eee9416854b5b1b2e5506a87c497f859f7e21c15400a49d0ba9e0738bad5860405160405180910390a25050565b60008060008060008060008781548110620002b257620002b162000767565b5b9060005260206000200160009054906101000a900473ffffffffffffffffffffffffffffffffffffffff1690508073ffffffffffffffffffffffffffffffffffffffff1663bfc2b13d6040518163ffffffff1660e01b8152600401602060405180830381865afa1580156200032b573d6000803e3d6000fd5b505050506040513d601f19601f82011682018060405250810190620003519190620007ad565b8173ffffffffffffffffffffffffffffffffffffffff1663d0549b856040518163ffffffff1660e01b8152600401602060405180830381865afa1580156200039d573d6000803e3d6000fd5b505050506040513d601f19601f82011682018060405250810190620003c39190620007ad565b8273ffffffffffffffffffffffffffffffffffffffff1663c89868df6040518163ffffffff1660e01b8152600401602060405180830381865afa1580156200040f573d6000803e3d6000fd5b505050506040513d601f19601f82011682018060405250810190620004359190620007ad565b8373ffffffffffffffffffffffffffffffffffffffff16318473ffffffffffffffffffffffffffffffffffffffff16638f3953716040518163ffffffff1660e01b8152600401602060405180830381865afa15801562000499573d6000803e3d6000fd5b505050506040513d601f19601f82011682018060405250810190620004bf919062000810565b955095509550955095505091939590929450565b611ed0806200084383390190565b600080fd5b6000819050919050565b620004fb81620004e6565b81146200050757600080fd5b50565b6000813590506200051b81620004f0565b92915050565b6000602082840312156200053a5762000539620004e1565b5b60006200054a848285016200050a565b91505092915050565b600073ffffffffffffffffffffffffffffffffffffffff82169050919050565b6000819050919050565b60006200059e62000598620005928462000553565b62000573565b62000553565b9050919050565b6000620005b2826200057d565b9050919050565b6000620005c682620005a5565b9050919050565b620005d881620005b9565b82525050565b6000602082019050620005f56000830184620005cd565b92915050565b6200060681620004e6565b82525050565b6000602082019050620006236000830184620005fb565b92915050565b6000620006368262000553565b9050919050565b620006488162000629565b82525050565b600060a082019050620006656000830188620005fb565b620006746020830187620005fb565b620006836040830186620005fb565b620006926060830185620005fb565b620006a160808301846200063d565b9695505050505050565b6000620006b88262000553565b9050919050565b620006ca81620006ab565b82525050565b6000604082019050620006e76000830185620006bf565b620006f66020830184620005fb565b9392505050565b7f4e487b7100000000000000000000000000000000000000000000000000000000600052601160045260246000fd5b60006200073982620004e6565b91506200074683620004e6565b9250828210156200075c576200075b620006fd565b5b828203905092915050565b7f4e487b7100000000000000000000000000000000000000000000000000000000600052603260045260246000fd5b600081519050620007a781620004f0565b92915050565b600060208284031215620007c657620007c5620004e1565b5b6000620007d68482850162000796565b91505092915050565b620007ea8162000629565b8114620007f657600080fd5b50565b6000815190506200080a81620007df565b92915050565b600060208284031215620008295762000828620004e1565b5b60006200083984828501620007f9565b9150509291505056fe608060405260036001556002805530600460006101000a81548173ffffffffffffffffffffffffffffffffffffffff021916908373ffffffffffffffffffffffffffffffffffffffff1602179055503480156200005b57600080fd5b5060405162001ed038038062001ed08339818101604052810190620000819190620001f0565b6000829080600181540180825580915050600190039060005260206000200160009091909190916101000a81548173ffffffffffffffffffffffffffffffffffffffff021916908373ffffffffffffffffffffffffffffffffffffffff1602179055506001600560008473ffffffffffffffffffffffffffffffffffffffff1673ffffffffffffffffffffffffffffffffffffffff16815260200190815260200160002060006101000a81548160ff02191690831515021790555080600381905550505062000237565b600080fd5b600073ffffffffffffffffffffffffffffffffffffffff82169050919050565b60006200017d8262000150565b9050919050565b6200018f8162000170565b81146200019b57600080fd5b50565b600081519050620001af8162000184565b92915050565b6000819050919050565b620001ca81620001b5565b8114620001d657600080fd5b50565b600081519050620001ea81620001bf565b92915050565b600080604083850312156200020a57620002096200014b565b5b60006200021a858286016200019e565b92505060206200022d85828601620001d9565b9150509250929050565b611c8980620002476000396000f3fe6080604052600436106101025760003560e01c80635aa68ac011610095578063bfc2b13d11610064578063bfc2b13d14610394578063c01a8c84146103bf578063c89868df146103e8578063d0549b8514610413578063ee22610b1461043e57610159565b80635aa68ac0146102c357806380f59a65146102ee5780638f3953711461032b5780639ace38c21461035657610159565b80632e7700f0116100d15780632e7700f0146102065780632f54bf6e1461023157806333ea3dc81461026e5780633caed876146102ac57610159565b8063025e7c271461015e57806312065fe01461019b5780631aa3a008146101c657806320ea8d86146101dd57610159565b36610159573373ffffffffffffffffffffffffffffffffffffffff167f90890809c654f11d6e72a28fa60149770a0d11ec6c92319d6ceb2bb0a4ea1a15344760405161014f9291906112a1565b60405180910390a2005b600080fd5b34801561016a57600080fd5b50610185600480360381019061018091906112fb565b610467565b6040516101929190611369565b60405180910390f35b3480156101a757600080fd5b506101b06104a6565b6040516101bd9190611384565b60405180910390f35b3480156101d257600080fd5b506101db6104ae565b005b3480156101e957600080fd5b5061020460048036038101906101ff91906112fb565b610641565b005b34801561021257600080fd5b5061021b61091b565b6040516102289190611384565b60405180910390f35b34801561023d57600080fd5b50610258600480360381019061025391906113dd565b610928565b6040516102659190611425565b60405180910390f35b34801561027a57600080fd5b50610295600480360381019061029091906112fb565b610948565b6040516102a3929190611440565b60405180910390f35b3480156102b857600080fd5b506102c1610992565b005b3480156102cf57600080fd5b506102d8610adf565b6040516102e59190611527565b60405180910390f35b3480156102fa57600080fd5b5061031560048036038101906103109190611549565b610b6d565b6040516103229190611425565b60405180910390f35b34801561033757600080fd5b50610340610b9c565b60405161034d9190611598565b60405180910390f35b34801561036257600080fd5b5061037d600480360381019061037891906112fb565b610bc2565b60405161038b929190611440565b60405180910390f35b3480156103a057600080fd5b506103a9610c03565b6040516103b69190611384565b60405180910390f35b3480156103cb57600080fd5b506103e660048036038101906103e191906112fb565b610c09565b005b3480156103f457600080fd5b506103fd610ee6565b60405161040a9190611384565b60405180910390f35b34801561041f57600080fd5b50610428610eec565b6040516104359190611384565b60405180910390f35b34801561044a57600080fd5b50610465600480360381019061046091906112fb565b610ef2565b005b6000818154811061047757600080fd5b906000526020600020016000915054906101000a900473ffffffffffffffffffffffffffffffffffffffff1681565b600047905090565b600154600080549050106104f7576040517f08c379a00000000000000000000000000000000000000000000000000000000081526004016104ee90611610565b60405180910390fd5b600560003373ffffffffffffffffffffffffffffffffffffffff1673ffffffffffffffffffffffffffffffffffffffff16815260200190815260200160002060009054906101000a900460ff1615610584576040517f08c379a000000000000000000000000000000000000000000000000000000000815260040161057b9061167c565b60405180910390fd5b6000339080600181540180825580915050600190039060005260206000200160009091909190916101000a81548173ffffffffffffffffffffffffffffffffffffffff021916908373ffffffffffffffffffffffffffffffffffffffff1602179055506001600560003373ffffffffffffffffffffffffffffffffffffffff1673ffffffffffffffffffffffffffffffffffffffff16815260200190815260200160002060006101000a81548160ff021916908315150217905550565b600560003373ffffffffffffffffffffffffffffffffffffffff1673ffffffffffffffffffffffffffffffffffffffff16815260200190815260200160002060009054906101000a900460ff166106cd576040517f08c379a00000000000000000000000000000000000000000000000000000000081526004016106c4906116e8565b60405180910390fd5b806007805490508110610715576040517f08c379a000000000000000000000000000000000000000000000000000000000815260040161070c90611754565b60405180910390fd5b816007818154811061072a57610729611774565b5b906000526020600020906002020160000160009054906101000a900460ff1615610789576040517f08c379a0000000000000000000000000000000000000000000000000000000008152600401610780906117ef565b60405180910390fd5b60006007848154811061079f5761079e611774565b5b906000526020600020906002020190506006600085815260200190815260200160002060003373ffffffffffffffffffffffffffffffffffffffff1673ffffffffffffffffffffffffffffffffffffffff16815260200190815260200160002060009054906101000a900460ff1661084c576040517f08c379a00000000000000000000000000000000000000000000000000000000081526004016108439061185b565b60405180910390fd5b600181600101600082825461086191906118aa565b9250508190555060006006600086815260200190815260200160002060003373ffffffffffffffffffffffffffffffffffffffff1673ffffffffffffffffffffffffffffffffffffffff16815260200190815260200160002060006101000a81548160ff021916908315150217905550833373ffffffffffffffffffffffffffffffffffffffff167ff0dca620e2e81f7841d07bcc105e1704fb01475b278a9d4c236e1c62945edd5560405160405180910390a350505050565b6000600780549050905090565b60056020528060005260406000206000915054906101000a900460ff1681565b60008060006007848154811061096157610960611774565b5b906000526020600020906002020190508060000160009054906101000a900460ff1681600101549250925050915091565b600560003373ffffffffffffffffffffffffffffffffffffffff1673ffffffffffffffffffffffffffffffffffffffff16815260200190815260200160002060009054906101000a900460ff16610a1e576040517f08c379a0000000000000000000000000000000000000000000000000000000008152600401610a15906116e8565b60405180910390fd5b60006007805490509050600760405180604001604052806000151581526020016000815250908060018154018082558091505060019003906000526020600020906002020160009091909190915060008201518160000160006101000a81548160ff021916908315150217905550602082015181600101555050803373ffffffffffffffffffffffffffffffffffffffff167fc82555d64d2b8b25ffefc140ae6575736763ee3a99347632d7f633e7bfae3f7860405160405180910390a350565b60606000805480602002602001604051908101604052809291908181526020018280548015610b6357602002820191906000526020600020905b8160009054906101000a900473ffffffffffffffffffffffffffffffffffffffff1673ffffffffffffffffffffffffffffffffffffffff1681526020019060010190808311610b19575b5050505050905090565b60066020528160005260406000206020528060005260406000206000915091509054906101000a900460ff1681565b600460009054906101000a900473ffffffffffffffffffffffffffffffffffffffff1681565b60078181548110610bd257600080fd5b90600052602060002090600202016000915090508060000160009054906101000a900460ff16908060010154905082565b60015481565b600560003373ffffffffffffffffffffffffffffffffffffffff1673ffffffffffffffffffffffffffffffffffffffff16815260200190815260200160002060009054906101000a900460ff16610c95576040517f08c379a0000000000000000000000000000000000000000000000000000000008152600401610c8c906116e8565b60405180910390fd5b806007805490508110610cdd576040517f08c379a0000000000000000000000000000000000000000000000000000000008152600401610cd490611754565b60405180910390fd5b8160078181548110610cf257610cf1611774565b5b906000526020600020906002020160000160009054906101000a900460ff1615610d51576040517f08c379a0000000000000000000000000000000000000000000000000000000008152600401610d48906117ef565b60405180910390fd5b826006600082815260200190815260200160002060003373ffffffffffffffffffffffffffffffffffffffff1673ffffffffffffffffffffffffffffffffffffffff16815260200190815260200160002060009054906101000a900460ff1615610df0576040517f08c379a0000000000000000000000000000000000000000000000000000000008152600401610de79061192a565b60405180910390fd5b600060078581548110610e0657610e05611774565b5b906000526020600020906002020190506001816001016000828254610e2b919061194a565b9250508190555060016006600087815260200190815260200160002060003373ffffffffffffffffffffffffffffffffffffffff1673ffffffffffffffffffffffffffffffffffffffff16815260200190815260200160002060006101000a81548160ff021916908315150217905550843373ffffffffffffffffffffffffffffffffffffffff167f5cbe105e36805f7820e291f799d5794ff948af2a5f664e580382defb6339004160405160405180910390a35050505050565b60035481565b60025481565b600560003373ffffffffffffffffffffffffffffffffffffffff1673ffffffffffffffffffffffffffffffffffffffff16815260200190815260200160002060009054906101000a900460ff16610f7e576040517f08c379a0000000000000000000000000000000000000000000000000000000008152600401610f75906116e8565b60405180910390fd5b806007805490508110610fc6576040517f08c379a0000000000000000000000000000000000000000000000000000000008152600401610fbd90611754565b60405180910390fd5b8160078181548110610fdb57610fda611774565b5b906000526020600020906002020160000160009054906101000a900460ff161561103a576040517f08c379a0000000000000000000000000000000000000000000000000000000008152600401611031906117ef565b60405180910390fd5b6000600784815481106110505761104f611774565b5b90600052602060002090600202019050600254816001015410156110a9576040517f08c379a00000000000000000000000000000000000000000000000000000000081526004016110a0906119ec565b60405180910390fd5b60008080549050116110f0576040517f08c379a00000000000000000000000000000000000000000000000000000000081526004016110e790611a7e565b60405180910390fd5b6000600354600080549050476111069190611acd565b6111109190611afe565b905060005b60008054905081101561121f57600080828154811061113757611136611774565b5b9060005260206000200160009054906101000a900473ffffffffffffffffffffffffffffffffffffffff1673ffffffffffffffffffffffffffffffffffffffff168360405161118590611b89565b60006040518083038185875af1925050503d80600081146111c2576040519150601f19603f3d011682016040523d82523d6000602084013e6111c7565b606091505b505090508061120b576040517f08c379a000000000000000000000000000000000000000000000000000000000815260040161120290611bea565b60405180910390fd5b50808061121790611c0a565b915050611115565b5060018260000160006101000a81548160ff021916908315150217905550843373ffffffffffffffffffffffffffffffffffffffff167f5445f318f4f5fcfb66592e68e0cc5822aa15664039bd5f0ffde24c5a8142b1ac60405160405180910390a35050505050565b6000819050919050565b61129b81611288565b82525050565b60006040820190506112b66000830185611292565b6112c36020830184611292565b9392505050565b600080fd5b6112d881611288565b81146112e357600080fd5b50565b6000813590506112f5816112cf565b92915050565b600060208284031215611311576113106112ca565b5b600061131f848285016112e6565b91505092915050565b600073ffffffffffffffffffffffffffffffffffffffff82169050919050565b600061135382611328565b9050919050565b61136381611348565b82525050565b600060208201905061137e600083018461135a565b92915050565b60006020820190506113996000830184611292565b92915050565b60006113aa82611328565b9050919050565b6113ba8161139f565b81146113c557600080fd5b50565b6000813590506113d7816113b1565b92915050565b6000602082840312156113f3576113f26112ca565b5b6000611401848285016113c8565b91505092915050565b60008115159050919050565b61141f8161140a565b82525050565b600060208201905061143a6000830184611416565b92915050565b60006040820190506114556000830185611416565b6114626020830184611292565b9392505050565b600081519050919050565b600082825260208201905092915050565b6000819050602082019050919050565b61149e81611348565b82525050565b60006114b08383611495565b60208301905092915050565b6000602082019050919050565b60006114d482611469565b6114de8185611474565b93506114e983611485565b8060005b8381101561151a57815161150188826114a4565b975061150c836114bc565b9250506001810190506114ed565b5085935050505092915050565b6000602082019050818103600083015261154181846114c9565b905092915050565b600080604083850312156115605761155f6112ca565b5b600061156e858286016112e6565b925050602061157f858286016113c8565b9150509250929050565b6115928161139f565b82525050565b60006020820190506115ad6000830184611589565b92915050565b600082825260208201905092915050565b7f636c6173732069732066756c6c00000000000000000000000000000000000000600082015250565b60006115fa600d836115b3565b9150611605826115c4565b602082019050919050565b60006020820190508181036000830152611629816115ed565b9050919050565b7f6f776e6572206e6f7420756e6971756500000000000000000000000000000000600082015250565b60006116666010836115b3565b915061167182611630565b602082019050919050565b6000602082019050818103600083015261169581611659565b9050919050565b7f6e6f74206f776e65720000000000000000000000000000000000000000000000600082015250565b60006116d26009836115b3565b91506116dd8261169c565b602082019050919050565b60006020820190508181036000830152611701816116c5565b9050919050565b7f747820646f6573206e6f74206578697374000000000000000000000000000000600082015250565b600061173e6011836115b3565b915061174982611708565b602082019050919050565b6000602082019050818103600083015261176d81611731565b9050919050565b7f4e487b7100000000000000000000000000000000000000000000000000000000600052603260045260246000fd5b7f747820616c726561647920657865637574656400000000000000000000000000600082015250565b60006117d96013836115b3565b91506117e4826117a3565b602082019050919050565b60006020820190508181036000830152611808816117cc565b9050919050565b7f7478206e6f7420636f6e6669726d656400000000000000000000000000000000600082015250565b60006118456010836115b3565b91506118508261180f565b602082019050919050565b6000602082019050818103600083015261187481611838565b9050919050565b7f4e487b7100000000000000000000000000000000000000000000000000000000600052601160045260246000fd5b60006118b582611288565b91506118c083611288565b9250828210156118d3576118d261187b565b5b828203905092915050565b7f747820616c726561647920636f6e6669726d6564000000000000000000000000600082015250565b60006119146014836115b3565b915061191f826118de565b602082019050919050565b6000602082019050818103600083015261194381611907565b9050919050565b600061195582611288565b915061196083611288565b9250827fffffffffffffffffffffffffffffffffffffffffffffffffffffffffffffffff038211156119955761199461187b565b5b828201905092915050565b7f63616e6e6f742065786563757465207478000000000000000000000000000000600082015250565b60006119d66011836115b3565b91506119e1826119a0565b602082019050919050565b60006020820190508181036000830152611a05816119c9565b9050919050565b7f546865726520617265206e6f207061727469636970616e747320696e2074686560008201527f20636c617373726f6f6d00000000000000000000000000000000000000000000602082015250565b6000611a68602a836115b3565b9150611a7382611a0c565b604082019050919050565b60006020820190508181036000830152611a9781611a5b565b9050919050565b7f4e487b7100000000000000000000000000000000000000000000000000000000600052601260045260246000fd5b6000611ad882611288565b9150611ae383611288565b925082611af357611af2611a9e565b5b828204905092915050565b6000611b0982611288565b9150611b1483611288565b9250817fffffffffffffffffffffffffffffffffffffffffffffffffffffffffffffffff0483118215151615611b4d57611b4c61187b565b5b828202905092915050565b600081905092915050565b50565b6000611b73600083611b58565b9150611b7e82611b63565b600082019050919050565b6000611b9482611b66565b9150819050919050565b7f4661696c656420746f2073656e64204574686572000000000000000000000000600082015250565b6000611bd46014836115b3565b9150611bdf82611b9e565b602082019050919050565b60006020820190508181036000830152611c0381611bc7565b9050919050565b6000611c1582611288565b91507fffffffffffffffffffffffffffffffffffffffffffffffffffffffffffffffff821415611c4857611c4761187b565b5b60018201905091905056fea2646970667358221220edf1ab0bcbff6eefa58ebb50104e9e80f0dc700574518d868916ad234c4cdcd564736f6c634300080a0033a2646970667358221220e1a5d0862a9a2dfbb9fda163418026d43b625437664df8dd34d253ac5dc7df5564736f6c634300080a0033",
  "immutableReferences": {},
  "source": "// SPDX-License-Identifier: GPL-3.0\npragma solidity >=0.8.0 <0.9.0;\n\nimport \"./Classroom.sol\";\n\n/// @title The Classroom Factory contract\n/// @author Wilman D. Vinueza\n/// @notice This is the contract that will create and store all the classrooms\n\ncontract ClassroomFactory{\n\n    event ClassroomCreated(address indexed classroomAddress);\n    \n    ///@notice In this array the classrooms will be stored\n    Classroom[] public classrooms;\n    \n    function createClassroom(uint _sessions) public {\n        Classroom classroom = (new Classroom)(payable(msg.sender), _sessions);\n        classrooms.push(classroom);\n\n        emit ClassroomCreated(address(classrooms[classrooms.length - 1]));\n    }\n    \n    /// @notice This function will retrieve the info of each classroom\n    /// @param _index The index in the classrooms array\n    function getClassroom(uint _index)\n        public\n        view\n        returns (  \n            uint numOfParticipants,\n            uint numConfirmationsRequired,\n            uint sessions,\n            uint balance,\n            address classroomAddress\n        )\n    {\n        Classroom classroom = classrooms[_index];\n        \n        return (\n            classroom.numOfParticipants(),\n            classroom.numConfirmationsRequired(),\n            classroom.sessions(),\n            address(classroom).balance,\n            classroom.classroomAddress()\n        );\n        \n    }\n\n    function getTotalClassrooms() public view returns(uint count) {\n        return classrooms.length;\n    }\n}\n\n\n\n\n\n\n\n\n\n\n",
  "sourcePath": "/home/daniel/Desktop/classroomDAO/code/contracts/ClassroomFactory.sol",
  "compiler": {
    "name": "solc",
    "version": "0.8.10+commit.fc410830.Emscripten.clang"
  },
  "schemaVersion": "3.4.3",
  "updatedAt": "2022-05-30T17:35:32.689Z",
  "networkType": "ethereum",
  "devdoc": {
    "author": "Wilman D. Vinueza",
    "kind": "dev",
    "methods": {
      "getClassroom(uint256)": {
        "params": {
          "_index": "The index in the classrooms array"
        }
      }
    },
    "title": "The Classroom Factory contract",
    "version": 1
  },
  "userdoc": {
    "kind": "user",
    "methods": {
      "classrooms(uint256)": {
        "notice": "In this array the classrooms will be stored"
      },
      "getClassroom(uint256)": {
        "notice": "This function will retrieve the info of each classroom"
      }
    },
    "notice": "This is the contract that will create and store all the classrooms",
    "version": 1
  }
}